{
  "contractName": "OracleNodeStakingContract",
  "abi": [
    {
      "inputs": [
        {
          "internalType": "address",
          "name": "_stakingToken",
          "type": "address"
        },
        {
          "internalType": "address",
          "name": "_stakingTokenRepresentation",
          "type": "address"
        }
      ],
      "stateMutability": "nonpayable",
      "type": "constructor"
    },
    {
      "anonymous": false,
      "inputs": [
        {
          "indexed": true,
          "internalType": "address",
          "name": "user",
          "type": "address"
        },
        {
          "indexed": false,
          "internalType": "uint256",
          "name": "amount",
          "type": "uint256"
        }
      ],
      "name": "Staked",
      "type": "event"
    },
    {
      "anonymous": false,
      "inputs": [
        {
          "indexed": true,
          "internalType": "address",
          "name": "user",
          "type": "address"
        },
        {
          "indexed": false,
          "internalType": "uint256",
          "name": "amount",
          "type": "uint256"
        }
      ],
      "name": "Withdrawn",
      "type": "event"
    },
    {
      "inputs": [
        {
          "internalType": "address",
          "name": "",
          "type": "address"
        }
      ],
      "name": "stakes",
      "outputs": [
        {
          "internalType": "uint256",
          "name": "",
          "type": "uint256"
        }
      ],
      "stateMutability": "view",
      "type": "function",
      "constant": true
    },
    {
      "inputs": [],
      "name": "stakingToken",
      "outputs": [
        {
          "internalType": "contract IERC20",
          "name": "",
          "type": "address"
        }
      ],
      "stateMutability": "view",
      "type": "function",
      "constant": true
    },
    {
      "inputs": [],
      "name": "stakingTokenRepresentation",
      "outputs": [
        {
          "internalType": "contract stMasaToken",
          "name": "",
          "type": "address"
        }
      ],
      "stateMutability": "view",
      "type": "function",
      "constant": true
    },
    {
      "inputs": [
        {
          "internalType": "uint256",
          "name": "amount",
          "type": "uint256"
        }
      ],
      "name": "stake",
      "outputs": [],
      "stateMutability": "nonpayable",
      "type": "function"
    },
    {
      "inputs": [
        {
          "internalType": "uint256",
          "name": "amount",
          "type": "uint256"
        }
      ],
      "name": "withdraw",
      "outputs": [],
      "stateMutability": "nonpayable",
      "type": "function"
    },
    {
      "inputs": [
        {
          "internalType": "address",
          "name": "account",
          "type": "address"
        }
      ],
      "name": "balanceOf",
      "outputs": [
        {
          "internalType": "uint256",
          "name": "",
          "type": "uint256"
        }
      ],
      "stateMutability": "view",
      "type": "function",
      "constant": true
    }
  ],
  "bytecode": "0x608060405234801561001057600080fd5b5060405161063d38038061063d83398101604081905261002f91610081565b6001600081905580546001600160a01b039384166001600160a01b031991821617909155600280549290931691161790556100b4565b80516001600160a01b038116811461007c57600080fd5b919050565b6000806040838503121561009457600080fd5b61009d83610065565b91506100ab60208401610065565b90509250929050565b61057a806100c36000396000f3fe608060405234801561001057600080fd5b50600436106100625760003560e01c806316934fc4146100675780632e1a7d4d1461009a57806370a08231146100af57806372f702f3146100d8578063a694fc3a14610103578063ddb90ae214610116575b600080fd5b610087610075366004610494565b60036020526000908152604090205481565b6040519081526020015b60405180910390f35b6100ad6100a83660046104e6565b610129565b005b6100876100bd366004610494565b6001600160a01b031660009081526003602052604090205490565b6001546100eb906001600160a01b031681565b6040516001600160a01b039091168152602001610091565b6100ad6101113660046104e6565b6102ed565b6002546100eb906001600160a01b031681565b61013161043a565b336000908152600360205260409020548111156101a35760405162461bcd60e51b815260206004820152602560248201527f576974686472617720616d6f756e742065786365656473207374616b656420616044820152641b5bdd5b9d60da1b60648201526084015b60405180910390fd5b33600090815260036020526040812080548392906101c2908490610517565b909155505060015460405163a9059cbb60e01b8152336004820152602481018390526001600160a01b039091169063a9059cbb90604401602060405180830381600087803b15801561021357600080fd5b505af1158015610227573d6000803e3d6000fd5b505050506040513d601f19601f8201168201806040525081019061024b91906104c4565b50600254604051630852cd8d60e31b8152600481018390526001600160a01b03909116906342966c6890602401600060405180830381600087803b15801561029257600080fd5b505af11580156102a6573d6000803e3d6000fd5b50506040518381523392507f7084f5476618d8e60b11ef0d7d3f06914655adb8793e28ff7f018d4c76d505d591506020015b60405180910390a26102ea6001600055565b50565b6102f561043a565b33600090815260036020526040812080548392906103149084906104ff565b90915550506001546040516323b872dd60e01b8152336004820152306024820152604481018390526001600160a01b03909116906323b872dd90606401602060405180830381600087803b15801561036b57600080fd5b505af115801561037f573d6000803e3d6000fd5b505050506040513d601f19601f820116820180604052508101906103a391906104c4565b506002546040516340c10f1960e01b8152336004820152602481018390526001600160a01b03909116906340c10f1990604401600060405180830381600087803b1580156103f057600080fd5b505af1158015610404573d6000803e3d6000fd5b50506040518381523392507f9e71bc8eea02a63969f509818f2dafb9254532904319f9dbda79b67bd34a5f3d91506020016102d8565b6002600054141561048d5760405162461bcd60e51b815260206004820152601f60248201527f5265656e7472616e637947756172643a207265656e7472616e742063616c6c00604482015260640161019a565b6002600055565b6000602082840312156104a657600080fd5b81356001600160a01b03811681146104bd57600080fd5b9392505050565b6000602082840312156104d657600080fd5b815180151581146104bd57600080fd5b6000602082840312156104f857600080fd5b5035919050565b600082198211156105125761051261052e565b500190565b6000828210156105295761052961052e565b500390565b634e487b7160e01b600052601160045260246000fdfea26469706673582212207baa0ac6bea0c90964e455383a93744e3a7a358dce6da7af4757e149d324cbfe64736f6c63430008070033",
  "immutableReferences": {},
  "source": "// contracts/contracts/OracleNodeStakingContract.sol\n// SPDX-License-Identifier: MIT\n// This contract is used for staking tokens in the Oracle Node\npragma solidity ^0.8.7;\n\n// Importing required libraries and contracts\nimport \"@openzeppelin/contracts/token/ERC20/IERC20.sol\"; // Interface for ERC20 tokens\nimport \"@openzeppelin/contracts/security/ReentrancyGuard.sol\"; // To prevent re-entrancy attacks\nimport \"./MasaToken.sol\"; // The token to be staked\nimport \"./stMasaToken.sol\"; // The token representing the stake\n\n// The contract inherits from ReentrancyGuard to prevent re-entrancy attacks\ncontract OracleNodeStakingContract is ReentrancyGuard {\n    IERC20 public stakingToken; // The token to be staked\n    stMasaToken public stakingTokenRepresentation; // The token representing the stake\n\n    // Mapping to keep track of the stakes of each address\n    mapping(address => uint256) public stakes;\n\n    // Events to be emitted when tokens are staked or withdrawn\n    event Staked(address indexed user, uint256 amount);\n    event Withdrawn(address indexed user, uint256 amount);\n\n    // The constructor sets the staking token and the token representing the stake\n    constructor(address _stakingToken, address _stakingTokenRepresentation) {\n        stakingToken = IERC20(_stakingToken);\n        stakingTokenRepresentation = stMasaToken(_stakingTokenRepresentation);\n    }\n\n    // Function to stake tokens. It updates the stake, transfers the tokens to the contract, mints the token representing the stake, and emits the Staked event\n    function stake(uint256 amount) external nonReentrant {\n        stakes[msg.sender] += amount;\n        stakingToken.transferFrom(msg.sender, address(this), amount);\n        stakingTokenRepresentation.mint(msg.sender, amount);\n        emit Staked(msg.sender, amount);\n    }\n\n    // Function to withdraw staked tokens. It checks if the amount to be withdrawn is less than or equal to the staked amount, updates the stake, transfers the tokens back to the user, burns the token representing the stake, and emits the Withdrawn event\n    function withdraw(uint256 amount) external nonReentrant {\n        require(stakes[msg.sender] >= amount, \"Withdraw amount exceeds staked amount\");\n        stakes[msg.sender] -= amount;\n        stakingToken.transfer(msg.sender, amount);\n        stakingTokenRepresentation.burn(amount);\n        emit Withdrawn(msg.sender, amount);\n    }\n\n    // Function to check the balance of a particular account - this is called by the oracle node to check isStaked status\n    function balanceOf(address account) external view returns (uint256) {\n        return stakes[account];\n    }\n}",
  "sourcePath": "/Users/brendanplayford/masa-oracle/contracts/contracts/OracleNodeStakingContract.sol",
  "compiler": {
    "name": "solc",
    "version": "0.8.7+commit.e28d00a7.Emscripten.clang"
  },
  "schemaVersion": "3.4.15",
  "updatedAt": "2023-11-27T05:46:29.313Z",
  "networkType": "ethereum",
  "devdoc": {
    "kind": "dev",
    "methods": {},
    "version": 1
  },
  "userdoc": {
    "kind": "user",
    "methods": {},
    "version": 1
  }
}