{
  "contractName": "OracleNodeStakingContract",
  "abi": [
    {
      "inputs": [
        {
          "internalType": "address",
          "name": "_stakingToken",
          "type": "address"
        }
      ],
      "stateMutability": "nonpayable",
      "type": "constructor"
    },
    {
      "anonymous": false,
      "inputs": [
        {
          "indexed": true,
          "internalType": "address",
          "name": "user",
          "type": "address"
        },
        {
          "indexed": false,
          "internalType": "uint256",
          "name": "amount",
          "type": "uint256"
        }
      ],
      "name": "Staked",
      "type": "event"
    },
    {
      "anonymous": false,
      "inputs": [
        {
          "indexed": true,
          "internalType": "address",
          "name": "user",
          "type": "address"
        },
        {
          "indexed": false,
          "internalType": "uint256",
          "name": "amount",
          "type": "uint256"
        }
      ],
      "name": "Withdrawn",
      "type": "event"
    },
    {
      "inputs": [
        {
          "internalType": "address",
          "name": "",
          "type": "address"
        }
      ],
      "name": "stakes",
      "outputs": [
        {
          "internalType": "uint256",
          "name": "",
          "type": "uint256"
        }
      ],
      "stateMutability": "view",
      "type": "function",
      "constant": true
    },
    {
      "inputs": [],
      "name": "stakingToken",
      "outputs": [
        {
          "internalType": "contract IERC20",
          "name": "",
          "type": "address"
        }
      ],
      "stateMutability": "view",
      "type": "function",
      "constant": true
    },
    {
      "inputs": [
        {
          "internalType": "uint256",
          "name": "amount",
          "type": "uint256"
        }
      ],
      "name": "stake",
      "outputs": [],
      "stateMutability": "nonpayable",
      "type": "function"
    },
    {
      "inputs": [
        {
          "internalType": "uint256",
          "name": "amount",
          "type": "uint256"
        }
      ],
      "name": "withdraw",
      "outputs": [],
      "stateMutability": "nonpayable",
      "type": "function"
    },
    {
      "inputs": [
        {
          "internalType": "address",
          "name": "account",
          "type": "address"
        }
      ],
      "name": "balanceOf",
      "outputs": [
        {
          "internalType": "uint256",
          "name": "",
          "type": "uint256"
        }
      ],
      "stateMutability": "view",
      "type": "function",
      "constant": true
    }
  ],
  "bytecode": "0x608060405234801561001057600080fd5b5060405161053238038061053283398101604081905261002f91610059565b6001600081905580546001600160a01b0319166001600160a01b0392909216919091179055610089565b60006020828403121561006b57600080fd5b81516001600160a01b038116811461008257600080fd5b9392505050565b61049a806100986000396000f3fe608060405234801561001057600080fd5b50600436106100575760003560e01c806316934fc41461005c5780632e1a7d4d1461008f57806370a08231146100a457806372f702f3146100cd578063a694fc3a146100f8575b600080fd5b61007c61006a3660046103b4565b60026020526000908152604090205481565b6040519081526020015b60405180910390f35b6100a261009d366004610406565b61010b565b005b61007c6100b23660046103b4565b6001600160a01b031660009081526002602052604090205490565b6001546100e0906001600160a01b031681565b6040516001600160a01b039091168152602001610086565b6100a2610106366004610406565b610271565b61011361035a565b336000908152600260205260409020548111156101855760405162461bcd60e51b815260206004820152602560248201527f576974686472617720616d6f756e742065786365656473207374616b656420616044820152641b5bdd5b9d60da1b60648201526084015b60405180910390fd5b33600090815260026020526040812080548392906101a4908490610437565b909155505060015460405163a9059cbb60e01b8152336004820152602481018390526001600160a01b039091169063a9059cbb90604401602060405180830381600087803b1580156101f557600080fd5b505af1158015610209573d6000803e3d6000fd5b505050506040513d601f19601f8201168201806040525081019061022d91906103e4565b5060405181815233907f7084f5476618d8e60b11ef0d7d3f06914655adb8793e28ff7f018d4c76d505d5906020015b60405180910390a261026e6001600055565b50565b61027961035a565b336000908152600260205260408120805483929061029890849061041f565b90915550506001546040516323b872dd60e01b8152336004820152306024820152604481018390526001600160a01b03909116906323b872dd90606401602060405180830381600087803b1580156102ef57600080fd5b505af1158015610303573d6000803e3d6000fd5b505050506040513d601f19601f8201168201806040525081019061032791906103e4565b5060405181815233907f9e71bc8eea02a63969f509818f2dafb9254532904319f9dbda79b67bd34a5f3d9060200161025c565b600260005414156103ad5760405162461bcd60e51b815260206004820152601f60248201527f5265656e7472616e637947756172643a207265656e7472616e742063616c6c00604482015260640161017c565b6002600055565b6000602082840312156103c657600080fd5b81356001600160a01b03811681146103dd57600080fd5b9392505050565b6000602082840312156103f657600080fd5b815180151581146103dd57600080fd5b60006020828403121561041857600080fd5b5035919050565b600082198211156104325761043261044e565b500190565b6000828210156104495761044961044e565b500390565b634e487b7160e01b600052601160045260246000fdfea264697066735822122069727797ae753ff640936a28d3d56d733d9d4fb5ab9127adf9e11bc643cf4d2964736f6c63430008070033",
  "immutableReferences": {},
  "source": "// SPDX-License-Identifier: MIT\npragma solidity ^0.8.7;\n\nimport \"@openzeppelin/contracts/token/ERC20/IERC20.sol\";\nimport \"@openzeppelin/contracts/security/ReentrancyGuard.sol\";\nimport \"./MasaToken.sol\";\n\ncontract OracleNodeStakingContract is ReentrancyGuard {\n    IERC20 public stakingToken;\n\n    mapping(address => uint256) public stakes;\n\n    event Staked(address indexed user, uint256 amount);\n    event Withdrawn(address indexed user, uint256 amount);\n\n    constructor(address _stakingToken) {\n        stakingToken = IERC20(_stakingToken);\n    }\n\n    function stake(uint256 amount) external nonReentrant {\n        stakes[msg.sender] += amount;\n        stakingToken.transferFrom(msg.sender, address(this), amount);\n        emit Staked(msg.sender, amount);\n    }\n\n    function withdraw(uint256 amount) external nonReentrant {\n        require(stakes[msg.sender] >= amount, \"Withdraw amount exceeds staked amount\");\n        stakes[msg.sender] -= amount;\n        stakingToken.transfer(msg.sender, amount);\n        emit Withdrawn(msg.sender, amount);\n    }\n\n    function balanceOf(address account) external view returns (uint256) {\n        return stakes[account];\n    }\n}",
  "sourcePath": "/Users/brendanplayford/masa-oracle/contracts/contracts/OracleNodeStakingContract.sol",
  "compiler": {
    "name": "solc",
    "version": "0.8.7+commit.e28d00a7.Emscripten.clang"
  },
  "schemaVersion": "3.4.15",
  "updatedAt": "2023-11-26T21:18:22.297Z",
  "networkType": "ethereum",
  "devdoc": {
    "kind": "dev",
    "methods": {},
    "version": 1
  },
  "userdoc": {
    "kind": "user",
    "methods": {},
    "version": 1
  }
}