{
  "contractName": "StakingContract",
  "abi": [
    {
      "inputs": [
        {
          "internalType": "contract MasaToken",
          "name": "tokenContract",
          "type": "address"
        }
      ],
      "stateMutability": "nonpayable",
      "type": "constructor"
    },
    {
      "anonymous": false,
      "inputs": [
        {
          "indexed": true,
          "internalType": "address",
          "name": "user",
          "type": "address"
        },
        {
          "indexed": false,
          "internalType": "uint256",
          "name": "amount",
          "type": "uint256"
        }
      ],
      "name": "Staked",
      "type": "event"
    },
    {
      "inputs": [
        {
          "internalType": "address",
          "name": "",
          "type": "address"
        }
      ],
      "name": "stakes",
      "outputs": [
        {
          "internalType": "uint256",
          "name": "",
          "type": "uint256"
        }
      ],
      "stateMutability": "view",
      "type": "function",
      "constant": true
    },
    {
      "inputs": [],
      "name": "token",
      "outputs": [
        {
          "internalType": "contract IERC20",
          "name": "",
          "type": "address"
        }
      ],
      "stateMutability": "view",
      "type": "function",
      "constant": true
    },
    {
      "inputs": [
        {
          "internalType": "uint256",
          "name": "amount",
          "type": "uint256"
        }
      ],
      "name": "stakeTokens",
      "outputs": [],
      "stateMutability": "nonpayable",
      "type": "function"
    }
  ],
  "bytecode": "0x608060405234801561001057600080fd5b5060405161033b38038061033b83398101604081905261002f91610054565b600080546001600160a01b0319166001600160a01b0392909216919091179055610084565b60006020828403121561006657600080fd5b81516001600160a01b038116811461007d57600080fd5b9392505050565b6102a8806100936000396000f3fe608060405234801561001057600080fd5b50600436106100415760003560e01c806316934fc4146100465780637547c7a314610079578063fc0c546a1461008e575b600080fd5b6100666100543660046101e1565b60016020526000908152604090205481565b6040519081526020015b60405180910390f35b61008c610087366004610233565b6100b9565b005b6000546100a1906001600160a01b031681565b6040516001600160a01b039091168152602001610070565b6000546040516323b872dd60e01b8152336004820152306024820152604481018390526001600160a01b03909116906323b872dd90606401602060405180830381600087803b15801561010b57600080fd5b505af115801561011f573d6000803e3d6000fd5b505050506040513d601f19601f820116820180604052508101906101439190610211565b6101855760405162461bcd60e51b815260206004820152600f60248201526e151c985b9cd9995c8819985a5b1959608a1b604482015260640160405180910390fd5b33600090815260016020526040812080548392906101a490849061024c565b909155505060405181815233907f9e71bc8eea02a63969f509818f2dafb9254532904319f9dbda79b67bd34a5f3d9060200160405180910390a250565b6000602082840312156101f357600080fd5b81356001600160a01b038116811461020a57600080fd5b9392505050565b60006020828403121561022357600080fd5b8151801515811461020a57600080fd5b60006020828403121561024557600080fd5b5035919050565b6000821982111561026d57634e487b7160e01b600052601160045260246000fd5b50019056fea26469706673582212203dc7479bb6a53b94b4f090b1ccf985e4bf233cda050bb5504cda2a7bc88e75fa64736f6c63430008070033",
  "immutableReferences": {},
  "source": "// SPDX-License-Identifier: MIT\n\npragma solidity ^0.8.0;\n\nimport \"@openzeppelin/contracts/token/ERC20/IERC20.sol\";\nimport \"./MasaToken.sol\"; // Import the MasaToken contract\n\ncontract StakingContract {\n    IERC20 public token;\n    mapping(address => uint256) public stakes;\n\n    event Staked(address indexed user, uint256 amount);\n\n    constructor(MasaToken tokenContract) { // Pass the MasaToken contract as a constructor argument\n        token = IERC20(address(tokenContract)); // Cast the MasaToken contract to an IERC20 interface\n    }\n\n    function stakeTokens(uint256 amount) public {\n        // Transfer the tokens to this contract\n        require(token.transferFrom(msg.sender, address(this), amount), \"Transfer failed\");\n\n        // Update the user's stake\n        stakes[msg.sender] += amount;\n\n        // Emit the Staked event\n        emit Staked(msg.sender, amount);\n    }\n}",
  "sourcePath": "/Users/brendanplayford/masa-oracle/contracts/contracts/OracleNodeStakingContract.sol",
  "compiler": {
    "name": "solc",
    "version": "0.8.7+commit.e28d00a7.Emscripten.clang"
  },
  "schemaVersion": "3.4.15",
  "updatedAt": "2023-11-26T21:03:51.231Z",
  "networkType": "ethereum",
  "devdoc": {
    "kind": "dev",
    "methods": {},
    "version": 1
  },
  "userdoc": {
    "kind": "user",
    "methods": {},
    "version": 1
  }
}