{
  "contractName": "stMasaToken",
  "abi": [
    {
      "inputs": [
        {
          "internalType": "address",
          "name": "admin",
          "type": "address"
        }
      ],
      "stateMutability": "nonpayable",
      "type": "constructor"
    },
    {
      "anonymous": false,
      "inputs": [
        {
          "indexed": true,
          "internalType": "address",
          "name": "owner",
          "type": "address"
        },
        {
          "indexed": true,
          "internalType": "address",
          "name": "spender",
          "type": "address"
        },
        {
          "indexed": false,
          "internalType": "uint256",
          "name": "value",
          "type": "uint256"
        }
      ],
      "name": "Approval",
      "type": "event"
    },
    {
      "anonymous": false,
      "inputs": [
        {
          "indexed": false,
          "internalType": "address",
          "name": "account",
          "type": "address"
        }
      ],
      "name": "Paused",
      "type": "event"
    },
    {
      "anonymous": false,
      "inputs": [
        {
          "indexed": true,
          "internalType": "bytes32",
          "name": "role",
          "type": "bytes32"
        },
        {
          "indexed": true,
          "internalType": "bytes32",
          "name": "previousAdminRole",
          "type": "bytes32"
        },
        {
          "indexed": true,
          "internalType": "bytes32",
          "name": "newAdminRole",
          "type": "bytes32"
        }
      ],
      "name": "RoleAdminChanged",
      "type": "event"
    },
    {
      "anonymous": false,
      "inputs": [
        {
          "indexed": true,
          "internalType": "bytes32",
          "name": "role",
          "type": "bytes32"
        },
        {
          "indexed": true,
          "internalType": "address",
          "name": "account",
          "type": "address"
        },
        {
          "indexed": true,
          "internalType": "address",
          "name": "sender",
          "type": "address"
        }
      ],
      "name": "RoleGranted",
      "type": "event"
    },
    {
      "anonymous": false,
      "inputs": [
        {
          "indexed": true,
          "internalType": "bytes32",
          "name": "role",
          "type": "bytes32"
        },
        {
          "indexed": true,
          "internalType": "address",
          "name": "account",
          "type": "address"
        },
        {
          "indexed": true,
          "internalType": "address",
          "name": "sender",
          "type": "address"
        }
      ],
      "name": "RoleRevoked",
      "type": "event"
    },
    {
      "anonymous": false,
      "inputs": [
        {
          "indexed": true,
          "internalType": "address",
          "name": "from",
          "type": "address"
        },
        {
          "indexed": true,
          "internalType": "address",
          "name": "to",
          "type": "address"
        },
        {
          "indexed": false,
          "internalType": "uint256",
          "name": "value",
          "type": "uint256"
        }
      ],
      "name": "Transfer",
      "type": "event"
    },
    {
      "anonymous": false,
      "inputs": [
        {
          "indexed": false,
          "internalType": "address",
          "name": "account",
          "type": "address"
        }
      ],
      "name": "Unpaused",
      "type": "event"
    },
    {
      "inputs": [],
      "name": "BURNER_ROLE",
      "outputs": [
        {
          "internalType": "bytes32",
          "name": "",
          "type": "bytes32"
        }
      ],
      "stateMutability": "view",
      "type": "function",
      "constant": true
    },
    {
      "inputs": [],
      "name": "DEFAULT_ADMIN_ROLE",
      "outputs": [
        {
          "internalType": "bytes32",
          "name": "",
          "type": "bytes32"
        }
      ],
      "stateMutability": "view",
      "type": "function",
      "constant": true
    },
    {
      "inputs": [],
      "name": "MINTER_ROLE",
      "outputs": [
        {
          "internalType": "bytes32",
          "name": "",
          "type": "bytes32"
        }
      ],
      "stateMutability": "view",
      "type": "function",
      "constant": true
    },
    {
      "inputs": [],
      "name": "PAUSER_ROLE",
      "outputs": [
        {
          "internalType": "bytes32",
          "name": "",
          "type": "bytes32"
        }
      ],
      "stateMutability": "view",
      "type": "function",
      "constant": true
    },
    {
      "inputs": [
        {
          "internalType": "address",
          "name": "owner",
          "type": "address"
        },
        {
          "internalType": "address",
          "name": "spender",
          "type": "address"
        }
      ],
      "name": "allowance",
      "outputs": [
        {
          "internalType": "uint256",
          "name": "",
          "type": "uint256"
        }
      ],
      "stateMutability": "view",
      "type": "function",
      "constant": true
    },
    {
      "inputs": [
        {
          "internalType": "address",
          "name": "spender",
          "type": "address"
        },
        {
          "internalType": "uint256",
          "name": "amount",
          "type": "uint256"
        }
      ],
      "name": "approve",
      "outputs": [
        {
          "internalType": "bool",
          "name": "",
          "type": "bool"
        }
      ],
      "stateMutability": "nonpayable",
      "type": "function"
    },
    {
      "inputs": [
        {
          "internalType": "address",
          "name": "account",
          "type": "address"
        }
      ],
      "name": "balanceOf",
      "outputs": [
        {
          "internalType": "uint256",
          "name": "",
          "type": "uint256"
        }
      ],
      "stateMutability": "view",
      "type": "function",
      "constant": true
    },
    {
      "inputs": [
        {
          "internalType": "address",
          "name": "account",
          "type": "address"
        },
        {
          "internalType": "uint256",
          "name": "amount",
          "type": "uint256"
        }
      ],
      "name": "burnFrom",
      "outputs": [],
      "stateMutability": "nonpayable",
      "type": "function"
    },
    {
      "inputs": [],
      "name": "decimals",
      "outputs": [
        {
          "internalType": "uint8",
          "name": "",
          "type": "uint8"
        }
      ],
      "stateMutability": "view",
      "type": "function",
      "constant": true
    },
    {
      "inputs": [
        {
          "internalType": "address",
          "name": "spender",
          "type": "address"
        },
        {
          "internalType": "uint256",
          "name": "subtractedValue",
          "type": "uint256"
        }
      ],
      "name": "decreaseAllowance",
      "outputs": [
        {
          "internalType": "bool",
          "name": "",
          "type": "bool"
        }
      ],
      "stateMutability": "nonpayable",
      "type": "function"
    },
    {
      "inputs": [
        {
          "internalType": "bytes32",
          "name": "role",
          "type": "bytes32"
        }
      ],
      "name": "getRoleAdmin",
      "outputs": [
        {
          "internalType": "bytes32",
          "name": "",
          "type": "bytes32"
        }
      ],
      "stateMutability": "view",
      "type": "function",
      "constant": true
    },
    {
      "inputs": [
        {
          "internalType": "bytes32",
          "name": "role",
          "type": "bytes32"
        },
        {
          "internalType": "uint256",
          "name": "index",
          "type": "uint256"
        }
      ],
      "name": "getRoleMember",
      "outputs": [
        {
          "internalType": "address",
          "name": "",
          "type": "address"
        }
      ],
      "stateMutability": "view",
      "type": "function",
      "constant": true
    },
    {
      "inputs": [
        {
          "internalType": "bytes32",
          "name": "role",
          "type": "bytes32"
        }
      ],
      "name": "getRoleMemberCount",
      "outputs": [
        {
          "internalType": "uint256",
          "name": "",
          "type": "uint256"
        }
      ],
      "stateMutability": "view",
      "type": "function",
      "constant": true
    },
    {
      "inputs": [
        {
          "internalType": "bytes32",
          "name": "role",
          "type": "bytes32"
        },
        {
          "internalType": "address",
          "name": "account",
          "type": "address"
        }
      ],
      "name": "grantRole",
      "outputs": [],
      "stateMutability": "nonpayable",
      "type": "function"
    },
    {
      "inputs": [
        {
          "internalType": "bytes32",
          "name": "role",
          "type": "bytes32"
        },
        {
          "internalType": "address",
          "name": "account",
          "type": "address"
        }
      ],
      "name": "hasRole",
      "outputs": [
        {
          "internalType": "bool",
          "name": "",
          "type": "bool"
        }
      ],
      "stateMutability": "view",
      "type": "function",
      "constant": true
    },
    {
      "inputs": [
        {
          "internalType": "address",
          "name": "spender",
          "type": "address"
        },
        {
          "internalType": "uint256",
          "name": "addedValue",
          "type": "uint256"
        }
      ],
      "name": "increaseAllowance",
      "outputs": [
        {
          "internalType": "bool",
          "name": "",
          "type": "bool"
        }
      ],
      "stateMutability": "nonpayable",
      "type": "function"
    },
    {
      "inputs": [
        {
          "internalType": "address",
          "name": "to",
          "type": "address"
        },
        {
          "internalType": "uint256",
          "name": "amount",
          "type": "uint256"
        }
      ],
      "name": "mint",
      "outputs": [],
      "stateMutability": "nonpayable",
      "type": "function"
    },
    {
      "inputs": [],
      "name": "name",
      "outputs": [
        {
          "internalType": "string",
          "name": "",
          "type": "string"
        }
      ],
      "stateMutability": "view",
      "type": "function",
      "constant": true
    },
    {
      "inputs": [],
      "name": "pause",
      "outputs": [],
      "stateMutability": "nonpayable",
      "type": "function"
    },
    {
      "inputs": [],
      "name": "paused",
      "outputs": [
        {
          "internalType": "bool",
          "name": "",
          "type": "bool"
        }
      ],
      "stateMutability": "view",
      "type": "function",
      "constant": true
    },
    {
      "inputs": [
        {
          "internalType": "bytes32",
          "name": "role",
          "type": "bytes32"
        },
        {
          "internalType": "address",
          "name": "account",
          "type": "address"
        }
      ],
      "name": "renounceRole",
      "outputs": [],
      "stateMutability": "nonpayable",
      "type": "function"
    },
    {
      "inputs": [
        {
          "internalType": "bytes32",
          "name": "role",
          "type": "bytes32"
        },
        {
          "internalType": "address",
          "name": "account",
          "type": "address"
        }
      ],
      "name": "revokeRole",
      "outputs": [],
      "stateMutability": "nonpayable",
      "type": "function"
    },
    {
      "inputs": [
        {
          "internalType": "bytes4",
          "name": "interfaceId",
          "type": "bytes4"
        }
      ],
      "name": "supportsInterface",
      "outputs": [
        {
          "internalType": "bool",
          "name": "",
          "type": "bool"
        }
      ],
      "stateMutability": "view",
      "type": "function",
      "constant": true
    },
    {
      "inputs": [],
      "name": "symbol",
      "outputs": [
        {
          "internalType": "string",
          "name": "",
          "type": "string"
        }
      ],
      "stateMutability": "view",
      "type": "function",
      "constant": true
    },
    {
      "inputs": [],
      "name": "totalSupply",
      "outputs": [
        {
          "internalType": "uint256",
          "name": "",
          "type": "uint256"
        }
      ],
      "stateMutability": "view",
      "type": "function",
      "constant": true
    },
    {
      "inputs": [
        {
          "internalType": "address",
          "name": "to",
          "type": "address"
        },
        {
          "internalType": "uint256",
          "name": "amount",
          "type": "uint256"
        }
      ],
      "name": "transfer",
      "outputs": [
        {
          "internalType": "bool",
          "name": "",
          "type": "bool"
        }
      ],
      "stateMutability": "nonpayable",
      "type": "function"
    },
    {
      "inputs": [
        {
          "internalType": "address",
          "name": "from",
          "type": "address"
        },
        {
          "internalType": "address",
          "name": "to",
          "type": "address"
        },
        {
          "internalType": "uint256",
          "name": "amount",
          "type": "uint256"
        }
      ],
      "name": "transferFrom",
      "outputs": [
        {
          "internalType": "bool",
          "name": "",
          "type": "bool"
        }
      ],
      "stateMutability": "nonpayable",
      "type": "function"
    },
    {
      "inputs": [],
      "name": "unpause",
      "outputs": [],
      "stateMutability": "nonpayable",
      "type": "function"
    },
    {
      "inputs": [
        {
          "internalType": "uint256",
          "name": "amount",
          "type": "uint256"
        }
      ],
      "name": "burn",
      "outputs": [],
      "stateMutability": "nonpayable",
      "type": "function"
    }
  ],
  "bytecode": "0x60806040523480156200001157600080fd5b50604051620020a6380380620020a6833981016040819052620000349162000642565b604080518082018252601181527029ba30b5b2b21026b0b9b0902a37b5b2b760791b60208083019182528351808501909452600684526573744d41534160d01b908401528151919291839183916200008f916005916200059c565b508051620000a59060069060208401906200059c565b50506007805460ff1916905550620000bf600033620001dd565b620000da6000805160206200208683398151915233620001dd565b620000f56000805160206200206683398151915233620001dd565b50620001059050600082620001dd565b620001206000805160206200208683398151915282620001dd565b6200013b6000805160206200206683398151915282620001dd565b620001677f3c11d16cbaffd01df69ce1c404f6340ee057498f5f00246190ea54220576a84882620001dd565b62000174600033620001ed565b6200018f6000805160206200208683398151915233620001ed565b620001aa6000805160206200206683398151915233620001ed565b620001d67f3c11d16cbaffd01df69ce1c404f6340ee057498f5f00246190ea54220576a84833620001ed565b5062000703565b620001e982826200026e565b5050565b6001600160a01b0381163314620002625760405162461bcd60e51b815260206004820152602f60248201527f416363657373436f6e74726f6c3a2063616e206f6e6c792072656e6f756e636560448201526e103937b632b9903337b91039b2b63360891b606482015260840160405180910390fd5b620001e98282620002b1565b620002858282620002ef60201b620009e41760201c565b6000828152600160209081526040909120620002ac91839062000a686200038f821b17901c565b505050565b620002c88282620003af60201b62000a7d1760201c565b6000828152600160209081526040909120620002ac91839062000ae26200042f821b17901c565b6000828152602081815260408083206001600160a01b038516845290915290205460ff16620001e9576000828152602081815260408083206001600160a01b03851684529091529020805460ff191660011790556200034b3390565b6001600160a01b0316816001600160a01b0316837f2f8788117e7eff1d82e926ec794901d17c78024a50270940304540a733656f0d60405160405180910390a45050565b6000620003a6836001600160a01b03841662000446565b90505b92915050565b6000828152602081815260408083206001600160a01b038516845290915290205460ff1615620001e9576000828152602081815260408083206001600160a01b0385168085529252808320805460ff1916905551339285917ff6391f5c32d9c69d2a47ea670b442974b53935d1edc7fd64eb21e047a839171b9190a45050565b6000620003a6836001600160a01b03841662000498565b60008181526001830160205260408120546200048f57508154600181810184556000848152602080822090930184905584548482528286019093526040902091909155620003a9565b506000620003a9565b6000818152600183016020526040812054801562000591576000620004bf60018362000674565b8554909150600090620004d59060019062000674565b905081811462000541576000866000018281548110620004f957620004f9620006ed565b90600052602060002001549050808760000184815481106200051f576200051f620006ed565b6000918252602080832090910192909255918252600188019052604090208390555b8554869080620005555762000555620006d7565b600190038181906000526020600020016000905590558560010160008681526020019081526020016000206000905560019350505050620003a9565b6000915050620003a9565b828054620005aa906200069a565b90600052602060002090601f016020900481019282620005ce576000855562000619565b82601f10620005e957805160ff191683800117855562000619565b8280016001018555821562000619579182015b8281111562000619578251825591602001919060010190620005fc565b50620006279291506200062b565b5090565b5b808211156200062757600081556001016200062c565b6000602082840312156200065557600080fd5b81516001600160a01b03811681146200066d57600080fd5b9392505050565b6000828210156200069557634e487b7160e01b600052601160045260246000fd5b500390565b600181811c90821680620006af57607f821691505b60208210811415620006d157634e487b7160e01b600052602260045260246000fd5b50919050565b634e487b7160e01b600052603160045260246000fd5b634e487b7160e01b600052603260045260246000fd5b61195380620007136000396000f3fe608060405234801561001057600080fd5b50600436106101cf5760003560e01c80635c975abb11610104578063a217fddf116100a2578063d539139311610071578063d5391393146103e1578063d547741f14610408578063dd62ed3e1461041b578063e63ab1e91461042e57600080fd5b8063a217fddf146103a0578063a457c2d7146103a8578063a9059cbb146103bb578063ca15c873146103ce57600080fd5b80638456cb59116100de5780638456cb59146103525780639010d07c1461035a57806391d148541461038557806395d89b411461039857600080fd5b80635c975abb1461030b57806370a082311461031657806379cc67901461033f57600080fd5b80632f2ff15d11610171578063395093511161014b57806339509351146102ca5780633f4ba83a146102dd57806340c10f19146102e557806342966c68146102f857600080fd5b80632f2ff15d14610293578063313ce567146102a857806336568abe146102b757600080fd5b806318160ddd116101ad57806318160ddd1461022457806323b872dd14610236578063248a9ca314610249578063282c51f31461026c57600080fd5b806301ffc9a7146101d457806306fdde03146101fc578063095ea7b314610211575b600080fd5b6101e76101e2366004611727565b610455565b60405190151581526020015b60405180910390f35b610204610480565b6040516101f391906117c6565b6101e761021f36600461169f565b610512565b6004545b6040519081526020016101f3565b6101e7610244366004611663565b61052a565b6102286102573660046116c9565b60009081526020819052604090206001015490565b6102287f3c11d16cbaffd01df69ce1c404f6340ee057498f5f00246190ea54220576a84881565b6102a66102a13660046116e2565b61054e565b005b604051601281526020016101f3565b6102a66102c53660046116e2565b610578565b6101e76102d836600461169f565b6105fb565b6102a661061d565b6102a66102f336600461169f565b6106c3565b6102a66103063660046116c9565b610762565b60075460ff166101e7565b610228610324366004611615565b6001600160a01b031660009081526002602052604090205490565b6102a661034d36600461169f565b6107e4565b6102a66107f9565b61036d610368366004611705565b61089d565b6040516001600160a01b0390911681526020016101f3565b6101e76103933660046116e2565b6108bc565b6102046108e5565b610228600081565b6101e76103b636600461169f565b6108f4565b6101e76103c936600461169f565b61096f565b6102286103dc3660046116c9565b61097d565b6102287f9f2df0fed2c77648de5860a4cc508cd0818c85b8b8a1ab4ceeef8d981c8956a681565b6102a66104163660046116e2565b610994565b610228610429366004611630565b6109b9565b6102287f65d7a28e3265b37a6474929f336521b332c1681b933f6cb9f3376673440d862a81565b60006001600160e01b03198216635a05180f60e01b148061047a575061047a82610af7565b92915050565b60606005805461048f9061188a565b80601f01602080910402602001604051908101604052809291908181526020018280546104bb9061188a565b80156105085780601f106104dd57610100808354040283529160200191610508565b820191906000526020600020905b8154815290600101906020018083116104eb57829003601f168201915b5050505050905090565b600033610520818585610b2c565b5060019392505050565b600033610538858285610c50565b610543858585610cca565b506001949350505050565b60008281526020819052604090206001015461056981610e80565b6105738383610e8a565b505050565b6001600160a01b03811633146105ed5760405162461bcd60e51b815260206004820152602f60248201527f416363657373436f6e74726f6c3a2063616e206f6e6c792072656e6f756e636560448201526e103937b632b9903337b91039b2b63360891b60648201526084015b60405180910390fd5b6105f78282610eac565b5050565b60003361052081858561060e83836109b9565b61061891906117f9565b610b2c565b6106477f65d7a28e3265b37a6474929f336521b332c1681b933f6cb9f3376673440d862a336108bc565b6106b95760405162461bcd60e51b815260206004820152603960248201527f45524332305072657365744d696e7465725061757365723a206d75737420686160448201527f76652070617573657220726f6c6520746f20756e70617573650000000000000060648201526084016105e4565b6106c1610ece565b565b6106ed7f9f2df0fed2c77648de5860a4cc508cd0818c85b8b8a1ab4ceeef8d981c8956a6336108bc565b6107585760405162461bcd60e51b815260206004820152603660248201527f45524332305072657365744d696e7465725061757365723a206d7573742068616044820152751d99481b5a5b9d195c881c9bdb19481d1bc81b5a5b9d60521b60648201526084016105e4565b6105f78282610f20565b61078c7f3c11d16cbaffd01df69ce1c404f6340ee057498f5f00246190ea54220576a848336108bc565b6107d85760405162461bcd60e51b815260206004820152601d60248201527f4d7573742068617665206275726e657220726f6c6520746f206275726e00000060448201526064016105e4565b6107e181610fed565b50565b6107ef823383610c50565b6105f78282610ff3565b6108237f65d7a28e3265b37a6474929f336521b332c1681b933f6cb9f3376673440d862a336108bc565b6108955760405162461bcd60e51b815260206004820152603760248201527f45524332305072657365744d696e7465725061757365723a206d75737420686160448201527f76652070617573657220726f6c6520746f20706175736500000000000000000060648201526084016105e4565b6106c1611133565b60008281526001602052604081206108b59083611170565b9392505050565b6000918252602082815260408084206001600160a01b0393909316845291905290205460ff1690565b60606006805461048f9061188a565b6000338161090282866109b9565b9050838110156109625760405162461bcd60e51b815260206004820152602560248201527f45524332303a2064656372656173656420616c6c6f77616e63652062656c6f77604482015264207a65726f60d81b60648201526084016105e4565b6105438286868403610b2c565b600033610520818585610cca565b600081815260016020526040812061047a9061117c565b6000828152602081905260409020600101546109af81610e80565b6105738383610eac565b6001600160a01b03918216600090815260036020908152604080832093909416825291909152205490565b6109ee82826108bc565b6105f7576000828152602081815260408083206001600160a01b03851684529091529020805460ff19166001179055610a243390565b6001600160a01b0316816001600160a01b0316837f2f8788117e7eff1d82e926ec794901d17c78024a50270940304540a733656f0d60405160405180910390a45050565b60006108b5836001600160a01b038416611186565b610a8782826108bc565b156105f7576000828152602081815260408083206001600160a01b0385168085529252808320805460ff1916905551339285917ff6391f5c32d9c69d2a47ea670b442974b53935d1edc7fd64eb21e047a839171b9190a45050565b60006108b5836001600160a01b0384166111d5565b60006001600160e01b03198216637965db0b60e01b148061047a57506301ffc9a760e01b6001600160e01b031983161461047a565b6001600160a01b038316610b8e5760405162461bcd60e51b8152602060048201526024808201527f45524332303a20617070726f76652066726f6d20746865207a65726f206164646044820152637265737360e01b60648201526084016105e4565b6001600160a01b038216610bef5760405162461bcd60e51b815260206004820152602260248201527f45524332303a20617070726f766520746f20746865207a65726f206164647265604482015261737360f01b60648201526084016105e4565b6001600160a01b0383811660008181526003602090815260408083209487168084529482529182902085905590518481527f8c5be1e5ebec7d5bd14f71427d1e84f3dd0314c0f7b2291e5b200ac8c7c3b925910160405180910390a3505050565b6000610c5c84846109b9565b90506000198114610cc45781811015610cb75760405162461bcd60e51b815260206004820152601d60248201527f45524332303a20696e73756666696369656e7420616c6c6f77616e636500000060448201526064016105e4565b610cc48484848403610b2c565b50505050565b6001600160a01b038316610d2e5760405162461bcd60e51b815260206004820152602560248201527f45524332303a207472616e736665722066726f6d20746865207a65726f206164604482015264647265737360d81b60648201526084016105e4565b6001600160a01b038216610d905760405162461bcd60e51b815260206004820152602360248201527f45524332303a207472616e7366657220746f20746865207a65726f206164647260448201526265737360e81b60648201526084016105e4565b610d9b8383836112c8565b6001600160a01b03831660009081526002602052604090205481811015610e135760405162461bcd60e51b815260206004820152602660248201527f45524332303a207472616e7366657220616d6f756e7420657863656564732062604482015265616c616e636560d01b60648201526084016105e4565b6001600160a01b0380851660008181526002602052604080822086860390559286168082529083902080548601905591517fddf252ad1be2c89b69c2b068fc378daa952ba7f163c4a11628f55a4df523b3ef90610e739086815260200190565b60405180910390a3610cc4565b6107e181336112d3565b610e9482826109e4565b60008281526001602052604090206105739082610a68565b610eb68282610a7d565b60008281526001602052604090206105739082610ae2565b610ed661132c565b6007805460ff191690557f5db9ee0a495bf2e6ff9c91a7834c1ba4fdd244a5e8aa4e537bd38aeae4b073aa335b6040516001600160a01b03909116815260200160405180910390a1565b6001600160a01b038216610f765760405162461bcd60e51b815260206004820152601f60248201527f45524332303a206d696e7420746f20746865207a65726f20616464726573730060448201526064016105e4565b610f82600083836112c8565b8060046000828254610f9491906117f9565b90915550506001600160a01b0382166000818152600260209081526040808320805486019055518481527fddf252ad1be2c89b69c2b068fc378daa952ba7f163c4a11628f55a4df523b3ef910160405180910390a35050565b6107e133825b6001600160a01b0382166110535760405162461bcd60e51b815260206004820152602160248201527f45524332303a206275726e2066726f6d20746865207a65726f206164647265736044820152607360f81b60648201526084016105e4565b61105f826000836112c8565b6001600160a01b038216600090815260026020526040902054818110156110d35760405162461bcd60e51b815260206004820152602260248201527f45524332303a206275726e20616d6f756e7420657863656564732062616c616e604482015261636560f01b60648201526084016105e4565b6001600160a01b03831660008181526002602090815260408083208686039055600480548790039055518581529192917fddf252ad1be2c89b69c2b068fc378daa952ba7f163c4a11628f55a4df523b3ef910160405180910390a3505050565b61113b611375565b6007805460ff191660011790557f62e78cea01bee320cd4e420270b5ea74000d11b0c9f74754ebdbfc544b05a258610f033390565b60006108b583836113bb565b600061047a825490565b60008181526001830160205260408120546111cd5750815460018181018455600084815260208082209093018490558454848252828601909352604090209190915561047a565b50600061047a565b600081815260018301602052604081205480156112be5760006111f9600183611830565b855490915060009061120d90600190611830565b905081811461127257600086600001828154811061122d5761122d6118f1565b9060005260206000200154905080876000018481548110611250576112506118f1565b6000918252602080832090910192909255918252600188019052604090208390555b8554869080611283576112836118db565b60019003818190600052602060002001600090559055856001016000868152602001908152602001600020600090556001935050505061047a565b600091505061047a565b6105738383836113e5565b6112dd82826108bc565b6105f7576112ea8161144b565b6112f583602061145d565b604051602001611306929190611751565b60408051601f198184030181529082905262461bcd60e51b82526105e4916004016117c6565b60075460ff166106c15760405162461bcd60e51b815260206004820152601460248201527314185d5cd8589b194e881b9bdd081c185d5cd95960621b60448201526064016105e4565b60075460ff16156106c15760405162461bcd60e51b815260206004820152601060248201526f14185d5cd8589b194e881c185d5cd95960821b60448201526064016105e4565b60008260000182815481106113d2576113d26118f1565b9060005260206000200154905092915050565b60075460ff16156105735760405162461bcd60e51b815260206004820152602a60248201527f45524332305061757361626c653a20746f6b656e207472616e736665722077686044820152691a5b19481c185d5cd95960b21b60648201526084016105e4565b606061047a6001600160a01b03831660145b6060600061146c836002611811565b6114779060026117f9565b67ffffffffffffffff81111561148f5761148f611907565b6040519080825280601f01601f1916602001820160405280156114b9576020820181803683370190505b509050600360fc1b816000815181106114d4576114d46118f1565b60200101906001600160f81b031916908160001a905350600f60fb1b81600181518110611503576115036118f1565b60200101906001600160f81b031916908160001a9053506000611527846002611811565b6115329060016117f9565b90505b60018111156115aa576f181899199a1a9b1b9c1cb0b131b232b360811b85600f1660108110611566576115666118f1565b1a60f81b82828151811061157c5761157c6118f1565b60200101906001600160f81b031916908160001a90535060049490941c936115a381611873565b9050611535565b5083156108b55760405162461bcd60e51b815260206004820181905260248201527f537472696e67733a20686578206c656e67746820696e73756666696369656e7460448201526064016105e4565b80356001600160a01b038116811461161057600080fd5b919050565b60006020828403121561162757600080fd5b6108b5826115f9565b6000806040838503121561164357600080fd5b61164c836115f9565b915061165a602084016115f9565b90509250929050565b60008060006060848603121561167857600080fd5b611681846115f9565b925061168f602085016115f9565b9150604084013590509250925092565b600080604083850312156116b257600080fd5b6116bb836115f9565b946020939093013593505050565b6000602082840312156116db57600080fd5b5035919050565b600080604083850312156116f557600080fd5b8235915061165a602084016115f9565b6000806040838503121561171857600080fd5b50508035926020909101359150565b60006020828403121561173957600080fd5b81356001600160e01b0319811681146108b557600080fd5b7f416363657373436f6e74726f6c3a206163636f756e7420000000000000000000815260008351611789816017850160208801611847565b7001034b99036b4b9b9b4b733903937b6329607d1b60179184019182015283516117ba816028840160208801611847565b01602801949350505050565b60208152600082518060208401526117e5816040850160208701611847565b601f01601f19169190910160400192915050565b6000821982111561180c5761180c6118c5565b500190565b600081600019048311821515161561182b5761182b6118c5565b500290565b600082821015611842576118426118c5565b500390565b60005b8381101561186257818101518382015260200161184a565b83811115610cc45750506000910152565b600081611882576118826118c5565b506000190190565b600181811c9082168061189e57607f821691505b602082108114156118bf57634e487b7160e01b600052602260045260246000fd5b50919050565b634e487b7160e01b600052601160045260246000fd5b634e487b7160e01b600052603160045260246000fd5b634e487b7160e01b600052603260045260246000fd5b634e487b7160e01b600052604160045260246000fdfea2646970667358221220b898cc8ec0fdcfc91de2915ba3baf0801a1338a4622da168c18794bd2a67719664736f6c6343000807003365d7a28e3265b37a6474929f336521b332c1681b933f6cb9f3376673440d862a9f2df0fed2c77648de5860a4cc508cd0818c85b8b8a1ab4ceeef8d981c8956a6",
  "immutableReferences": {},
  "source": "// contracts/contracts/stMASAToken.sol\n// SPDX-License-Identifier: MIT\npragma solidity ^0.8.7;\n\nimport \"@openzeppelin/contracts/token/ERC20/presets/ERC20PresetMinterPauser.sol\";\nimport \"@openzeppelin/contracts/access/AccessControl.sol\";\n\ncontract stMasaToken is ERC20PresetMinterPauser {\n    bytes32 public constant BURNER_ROLE = keccak256(\"BURNER_ROLE\");\n\n    constructor(address admin) ERC20PresetMinterPauser(\"Staked Masa Token\", \"stMASA\") {\n        _setupRole(DEFAULT_ADMIN_ROLE, admin);\n        _setupRole(MINTER_ROLE, admin);\n        _setupRole(PAUSER_ROLE, admin);\n        _setupRole(BURNER_ROLE, admin);\n\n        renounceRole(DEFAULT_ADMIN_ROLE, _msgSender());\n        renounceRole(MINTER_ROLE, _msgSender());\n        renounceRole(PAUSER_ROLE, _msgSender());\n        renounceRole(BURNER_ROLE, _msgSender());\n    }\n\n    function burn(uint256 amount) public virtual override {\n        require(hasRole(BURNER_ROLE, _msgSender()), \"Must have burner role to burn\");\n        super.burn(amount);\n    }\n}",
  "sourcePath": "/Users/brendanplayford/masa-oracle/contracts/contracts/stMasaToken.sol",
  "compiler": {
    "name": "solc",
    "version": "0.8.7+commit.e28d00a7.Emscripten.clang"
  },
  "schemaVersion": "3.4.15",
  "updatedAt": "2023-11-27T05:46:29.309Z",
  "networkType": "ethereum",
  "devdoc": {
    "kind": "dev",
    "methods": {
      "allowance(address,address)": {
        "details": "See {IERC20-allowance}."
      },
      "approve(address,uint256)": {
        "details": "See {IERC20-approve}. NOTE: If `amount` is the maximum `uint256`, the allowance is not updated on `transferFrom`. This is semantically equivalent to an infinite approval. Requirements: - `spender` cannot be the zero address."
      },
      "balanceOf(address)": {
        "details": "See {IERC20-balanceOf}."
      },
      "burn(uint256)": {
        "details": "Destroys `amount` tokens from the caller. See {ERC20-_burn}."
      },
      "burnFrom(address,uint256)": {
        "details": "Destroys `amount` tokens from `account`, deducting from the caller's allowance. See {ERC20-_burn} and {ERC20-allowance}. Requirements: - the caller must have allowance for ``accounts``'s tokens of at least `amount`."
      },
      "decimals()": {
        "details": "Returns the number of decimals used to get its user representation. For example, if `decimals` equals `2`, a balance of `505` tokens should be displayed to a user as `5.05` (`505 / 10 ** 2`). Tokens usually opt for a value of 18, imitating the relationship between Ether and Wei. This is the default value returned by this function, unless it's overridden. NOTE: This information is only used for _display_ purposes: it in no way affects any of the arithmetic of the contract, including {IERC20-balanceOf} and {IERC20-transfer}."
      },
      "decreaseAllowance(address,uint256)": {
        "details": "Atomically decreases the allowance granted to `spender` by the caller. This is an alternative to {approve} that can be used as a mitigation for problems described in {IERC20-approve}. Emits an {Approval} event indicating the updated allowance. Requirements: - `spender` cannot be the zero address. - `spender` must have allowance for the caller of at least `subtractedValue`."
      },
      "getRoleAdmin(bytes32)": {
        "details": "Returns the admin role that controls `role`. See {grantRole} and {revokeRole}. To change a role's admin, use {_setRoleAdmin}."
      },
      "getRoleMember(bytes32,uint256)": {
        "details": "Returns one of the accounts that have `role`. `index` must be a value between 0 and {getRoleMemberCount}, non-inclusive. Role bearers are not sorted in any particular way, and their ordering may change at any point. WARNING: When using {getRoleMember} and {getRoleMemberCount}, make sure you perform all queries on the same block. See the following https://forum.openzeppelin.com/t/iterating-over-elements-on-enumerableset-in-openzeppelin-contracts/2296[forum post] for more information."
      },
      "getRoleMemberCount(bytes32)": {
        "details": "Returns the number of accounts that have `role`. Can be used together with {getRoleMember} to enumerate all bearers of a role."
      },
      "grantRole(bytes32,address)": {
        "details": "Grants `role` to `account`. If `account` had not been already granted `role`, emits a {RoleGranted} event. Requirements: - the caller must have ``role``'s admin role. May emit a {RoleGranted} event."
      },
      "hasRole(bytes32,address)": {
        "details": "Returns `true` if `account` has been granted `role`."
      },
      "increaseAllowance(address,uint256)": {
        "details": "Atomically increases the allowance granted to `spender` by the caller. This is an alternative to {approve} that can be used as a mitigation for problems described in {IERC20-approve}. Emits an {Approval} event indicating the updated allowance. Requirements: - `spender` cannot be the zero address."
      },
      "mint(address,uint256)": {
        "details": "Creates `amount` new tokens for `to`. See {ERC20-_mint}. Requirements: - the caller must have the `MINTER_ROLE`."
      },
      "name()": {
        "details": "Returns the name of the token."
      },
      "pause()": {
        "details": "Pauses all token transfers. See {ERC20Pausable} and {Pausable-_pause}. Requirements: - the caller must have the `PAUSER_ROLE`."
      },
      "paused()": {
        "details": "Returns true if the contract is paused, and false otherwise."
      },
      "renounceRole(bytes32,address)": {
        "details": "Revokes `role` from the calling account. Roles are often managed via {grantRole} and {revokeRole}: this function's purpose is to provide a mechanism for accounts to lose their privileges if they are compromised (such as when a trusted device is misplaced). If the calling account had been revoked `role`, emits a {RoleRevoked} event. Requirements: - the caller must be `account`. May emit a {RoleRevoked} event."
      },
      "revokeRole(bytes32,address)": {
        "details": "Revokes `role` from `account`. If `account` had been granted `role`, emits a {RoleRevoked} event. Requirements: - the caller must have ``role``'s admin role. May emit a {RoleRevoked} event."
      },
      "supportsInterface(bytes4)": {
        "details": "See {IERC165-supportsInterface}."
      },
      "symbol()": {
        "details": "Returns the symbol of the token, usually a shorter version of the name."
      },
      "totalSupply()": {
        "details": "See {IERC20-totalSupply}."
      },
      "transfer(address,uint256)": {
        "details": "See {IERC20-transfer}. Requirements: - `to` cannot be the zero address. - the caller must have a balance of at least `amount`."
      },
      "transferFrom(address,address,uint256)": {
        "details": "See {IERC20-transferFrom}. Emits an {Approval} event indicating the updated allowance. This is not required by the EIP. See the note at the beginning of {ERC20}. NOTE: Does not update the allowance if the current allowance is the maximum `uint256`. Requirements: - `from` and `to` cannot be the zero address. - `from` must have a balance of at least `amount`. - the caller must have allowance for ``from``'s tokens of at least `amount`."
      },
      "unpause()": {
        "details": "Unpauses all token transfers. See {ERC20Pausable} and {Pausable-_unpause}. Requirements: - the caller must have the `PAUSER_ROLE`."
      }
    },
    "version": 1
  },
  "userdoc": {
    "kind": "user",
    "methods": {},
    "version": 1
  }
}